{
    "contractName": "TodoList",
    "abi": [
        {
            "inputs": [],
            "name": "taskCount",
            "outputs": [
                {
                    "internalType": "uint256",
                    "name": "",
                    "type": "uint256"
                }
            ],
            "stateMutability": "view",
            "type": "function"
        }
    ],
    "bytecode": "608060405260008055348015601357600080fd5b50607d806100226000396000f3fe6080604052348015600f57600080fd5b506004361060285760003560e01c8063b6cb58a514602d575b600080fd5b603560005481565b60405190815260200160405180910390f3fea26469706673582212201a8fae4fbb4178d8c1dabc42981ee715ab4b69abdbe94aeaec23beb76975d41764736f6c63430008060033",
    "sourcePath": "c:/Users/PC/Desktop/eth-todo-list/contracts/TodoList.sol",
    "compiler": {
        "name": "solc",
        "version": "0.8.6+commit.11564f7e"
    },
    "functionHashes": {
        "taskCount()": "b6cb58a5"
    },
    "gasEstimates": {
        "creation": {
            "codeDepositCost": "25000",
            "executionCost": "5081",
            "totalCost": "30081"
        },
        "external": {
            "taskCount()": "2261"
        }
    }
}